{
  "_format": "hh-sol-artifact-1",
  "contractName": "Voting",
  "sourceName": "contracts/Voting.sol",
  "abi": [
    {
      "inputs": [
        {
          "internalType": "string[]",
          "name": "_candidateNames",
          "type": "string[]"
        },
        {
          "internalType": "uint256",
          "name": "_durationInMinutes",
          "type": "uint256"
        }
      ],
      "stateMutability": "nonpayable",
      "type": "constructor"
    },
    {
      "inputs": [
        {
          "internalType": "string",
          "name": "_name",
          "type": "string"
        }
      ],
      "name": "addCandidate",
      "outputs": [],
      "stateMutability": "nonpayable",
      "type": "function"
    },
    {
      "inputs": [
        {
          "internalType": "uint256",
          "name": "",
          "type": "uint256"
        }
      ],
      "name": "candidates",
      "outputs": [
        {
          "internalType": "string",
          "name": "name",
          "type": "string"
        },
        {
          "internalType": "uint256",
          "name": "voteCount",
          "type": "uint256"
        }
      ],
      "stateMutability": "view",
      "type": "function"
    },
    {
      "inputs": [],
      "name": "getAllVotesOfCandidate",
      "outputs": [
        {
          "components": [
            {
              "internalType": "string",
              "name": "name",
              "type": "string"
            },
            {
              "internalType": "uint256",
              "name": "voteCount",
              "type": "uint256"
            }
          ],
          "internalType": "struct Voting.Candidate[]",
          "name": "",
          "type": "tuple[]"
        }
      ],
      "stateMutability": "view",
      "type": "function"
    },
    {
      "inputs": [],
      "name": "getRemainingTime",
      "outputs": [
        {
          "internalType": "uint256",
          "name": "",
          "type": "uint256"
        }
      ],
      "stateMutability": "view",
      "type": "function"
    },
    {
      "inputs": [],
      "name": "getVotingStatus",
      "outputs": [
        {
          "internalType": "bool",
          "name": "",
          "type": "bool"
        }
      ],
      "stateMutability": "view",
      "type": "function"
    },
    {
      "inputs": [
        {
          "internalType": "uint256",
          "name": "_candidateIndex",
          "type": "uint256"
        }
      ],
      "name": "vote",
      "outputs": [],
      "stateMutability": "nonpayable",
      "type": "function"
    },
    {
      "inputs": [
        {
          "internalType": "address",
          "name": "",
          "type": "address"
        }
      ],
      "name": "voters",
      "outputs": [
        {
          "internalType": "bool",
          "name": "",
          "type": "bool"
        }
      ],
      "stateMutability": "view",
      "type": "function"
    },
    {
      "inputs": [],
      "name": "votingEnd",
      "outputs": [
        {
          "internalType": "uint256",
          "name": "",
          "type": "uint256"
        }
      ],
      "stateMutability": "view",
      "type": "function"
    },
    {
      "inputs": [],
      "name": "votingStart",
      "outputs": [
        {
          "internalType": "uint256",
          "name": "",
          "type": "uint256"
        }
      ],
      "stateMutability": "view",
      "type": "function"
    }
  ],
  "bytecode": "0x60806040523480156200001157600080fd5b506040516200169c3803806200169c8339818101604052810190620000379190620004d9565b60005b8251811015620000e357600160405180604001604052808584815181106200006757620000666200053f565b5b60200260200101518152602001600081525090806001815401808255809150506001900390600052602060002090600202016000909190919091506000820151816000019080519060200190620000c092919062000155565b506020820151816001015550508080620000da906200059d565b9150506200003a565b50336000806101000a81548173ffffffffffffffffffffffffffffffffffffffff021916908373ffffffffffffffffffffffffffffffffffffffff16021790555042600381905550603c816200013a9190620005eb565b426200014791906200064c565b60048190555050506200070e565b8280546200016390620006d8565b90600052602060002090601f016020900481019282620001875760008555620001d3565b82601f10620001a257805160ff1916838001178555620001d3565b82800160010185558215620001d3579182015b82811115620001d2578251825591602001919060010190620001b5565b5b509050620001e29190620001e6565b5090565b5b8082111562000201576000816000905550600101620001e7565b5090565b6000604051905090565b600080fd5b600080fd5b600080fd5b6000601f19601f8301169050919050565b7f4e487b7100000000000000000000000000000000000000000000000000000000600052604160045260246000fd5b62000269826200021e565b810181811067ffffffffffffffff821117156200028b576200028a6200022f565b5b80604052505050565b6000620002a062000205565b9050620002ae82826200025e565b919050565b600067ffffffffffffffff821115620002d157620002d06200022f565b5b602082029050602081019050919050565b600080fd5b600080fd5b600067ffffffffffffffff8211156200030a57620003096200022f565b5b62000315826200021e565b9050602081019050919050565b60005b838110156200034257808201518184015260208101905062000325565b8381111562000352576000848401525b50505050565b60006200036f6200036984620002ec565b62000294565b9050828152602081018484840111156200038e576200038d620002e7565b5b6200039b84828562000322565b509392505050565b600082601f830112620003bb57620003ba62000219565b5b8151620003cd84826020860162000358565b91505092915050565b6000620003ed620003e784620002b3565b62000294565b90508083825260208201905060208402830185811115620004135762000412620002e2565b5b835b818110156200046157805167ffffffffffffffff8111156200043c576200043b62000219565b5b8086016200044b8982620003a3565b8552602085019450505060208101905062000415565b5050509392505050565b600082601f83011262000483576200048262000219565b5b815162000495848260208601620003d6565b91505092915050565b6000819050919050565b620004b3816200049e565b8114620004bf57600080fd5b50565b600081519050620004d381620004a8565b92915050565b60008060408385031215620004f357620004f26200020f565b5b600083015167ffffffffffffffff81111562000514576200051362000214565b5b62000522858286016200046b565b92505060206200053585828601620004c2565b9150509250929050565b7f4e487b7100000000000000000000000000000000000000000000000000000000600052603260045260246000fd5b7f4e487b7100000000000000000000000000000000000000000000000000000000600052601160045260246000fd5b6000620005aa826200049e565b91507fffffffffffffffffffffffffffffffffffffffffffffffffffffffffffffffff821415620005e057620005df6200056e565b5b600182019050919050565b6000620005f8826200049e565b915062000605836200049e565b9250817fffffffffffffffffffffffffffffffffffffffffffffffffffffffffffffffff04831182151516156200064157620006406200056e565b5b828202905092915050565b600062000659826200049e565b915062000666836200049e565b9250827fffffffffffffffffffffffffffffffffffffffffffffffffffffffffffffffff038211156200069e576200069d6200056e565b5b828201905092915050565b7f4e487b7100000000000000000000000000000000000000000000000000000000600052602260045260246000fd5b60006002820490506001821680620006f157607f821691505b60208210811415620007085762000707620006a9565b5b50919050565b610f7e806200071e6000396000f3fe608060405234801561001057600080fd5b50600436106100935760003560e01c8063581c281c11610066578063581c281c1461011f57806385a386351461013d578063a3ec138d1461015b578063dc0c60001461018b578063efb98bcf146101a957610093565b80630121b93f14610098578063101158af146100b45780633477ee2e146100d2578063462e91ec14610103575b600080fd5b6100b260048036038101906100ad9190610783565b6101c7565b005b6100bc610331565b6040516100c991906107bf565b60405180910390f35b6100ec60048036038101906100e79190610783565b610337565b6040516100fa929190610873565b60405180910390f35b61011d600480360381019061011891906109d8565b6103f3565b005b6101276104ee565b6040516101349190610a3c565b60405180910390f35b610145610508565b60405161015291906107bf565b60405180910390f35b61017560048036038101906101709190610ab5565b61050e565b6040516101829190610a3c565b60405180910390f35b61019361052e565b6040516101a09190610c3a565b60405180910390f35b6101b1610629565b6040516101be91906107bf565b60405180910390f35b600260003373ffffffffffffffffffffffffffffffffffffffff1673ffffffffffffffffffffffffffffffffffffffff16815260200190815260200160002060009054906101000a900460ff1615610254576040517f08c379a000000000000000000000000000000000000000000000000000000000815260040161024b90610ca8565b60405180910390fd5b600180549050811061029b576040517f08c379a000000000000000000000000000000000000000000000000000000000815260040161029290610d14565b60405180910390fd5b600181815481106102af576102ae610d34565b5b906000526020600020906002020160010160008154809291906102d190610d92565b91905055506001600260003373ffffffffffffffffffffffffffffffffffffffff1673ffffffffffffffffffffffffffffffffffffffff16815260200190815260200160002060006101000a81548160ff02191690831515021790555050565b60035481565b6001818154811061034757600080fd5b906000526020600020906002020160009150905080600001805461036a90610e0a565b80601f016020809104026020016040519081016040528092919081815260200182805461039690610e0a565b80156103e35780601f106103b8576101008083540402835291602001916103e3565b820191906000526020600020905b8154815290600101906020018083116103c657829003601f168201915b5050505050908060010154905082565b60008054906101000a900473ffffffffffffffffffffffffffffffffffffffff1673ffffffffffffffffffffffffffffffffffffffff163373ffffffffffffffffffffffffffffffffffffffff1614610481576040517f08c379a000000000000000000000000000000000000000000000000000000000815260040161047890610e88565b60405180910390fd5b600160405180604001604052808381526020016000815250908060018154018082558091505060019003906000526020600020906002020160009091909190915060008201518160000190805190602001906104de929190610696565b5060208201518160010155505050565b60006003544210158015610503575060045442105b905090565b60045481565b60026020528060005260406000206000915054906101000a900460ff1681565b60606001805480602002602001604051908101604052809291908181526020016000905b82821015610620578382906000526020600020906002020160405180604001604052908160008201805461058590610e0a565b80601f01602080910402602001604051908101604052809291908181526020018280546105b190610e0a565b80156105fe5780601f106105d3576101008083540402835291602001916105fe565b820191906000526020600020905b8154815290600101906020018083116105e157829003601f168201915b5050505050815260200160018201548152505081526020019060010190610552565b50505050905090565b6000600354421015610670576040517f08c379a000000000000000000000000000000000000000000000000000000000815260040161066790610ef4565b60405180910390fd5b60045442106106825760009050610693565b426004546106909190610f14565b90505b90565b8280546106a290610e0a565b90600052602060002090601f0160209004810192826106c4576000855561070b565b82601f106106dd57805160ff191683800117855561070b565b8280016001018555821561070b579182015b8281111561070a5782518255916020019190600101906106ef565b5b509050610718919061071c565b5090565b5b8082111561073557600081600090555060010161071d565b5090565b6000604051905090565b600080fd5b600080fd5b6000819050919050565b6107608161074d565b811461076b57600080fd5b50565b60008135905061077d81610757565b92915050565b60006020828403121561079957610798610743565b5b60006107a78482850161076e565b91505092915050565b6107b98161074d565b82525050565b60006020820190506107d460008301846107b0565b92915050565b600081519050919050565b600082825260208201905092915050565b60005b838110156108145780820151818401526020810190506107f9565b83811115610823576000848401525b50505050565b6000601f19601f8301169050919050565b6000610845826107da565b61084f81856107e5565b935061085f8185602086016107f6565b61086881610829565b840191505092915050565b6000604082019050818103600083015261088d818561083a565b905061089c60208301846107b0565b9392505050565b600080fd5b600080fd5b7f4e487b7100000000000000000000000000000000000000000000000000000000600052604160045260246000fd5b6108e582610829565b810181811067ffffffffffffffff82111715610904576109036108ad565b5b80604052505050565b6000610917610739565b905061092382826108dc565b919050565b600067ffffffffffffffff821115610943576109426108ad565b5b61094c82610829565b9050602081019050919050565b82818337600083830152505050565b600061097b61097684610928565b61090d565b905082815260208101848484011115610997576109966108a8565b5b6109a2848285610959565b509392505050565b600082601f8301126109bf576109be6108a3565b5b81356109cf848260208601610968565b91505092915050565b6000602082840312156109ee576109ed610743565b5b600082013567ffffffffffffffff811115610a0c57610a0b610748565b5b610a18848285016109aa565b91505092915050565b60008115159050919050565b610a3681610a21565b82525050565b6000602082019050610a516000830184610a2d565b92915050565b600073ffffffffffffffffffffffffffffffffffffffff82169050919050565b6000610a8282610a57565b9050919050565b610a9281610a77565b8114610a9d57600080fd5b50565b600081359050610aaf81610a89565b92915050565b600060208284031215610acb57610aca610743565b5b6000610ad984828501610aa0565b91505092915050565b600081519050919050565b600082825260208201905092915050565b6000819050602082019050919050565b600082825260208201905092915050565b6000610b2a826107da565b610b348185610b0e565b9350610b448185602086016107f6565b610b4d81610829565b840191505092915050565b610b618161074d565b82525050565b60006040830160008301518482036000860152610b848282610b1f565b9150506020830151610b996020860182610b58565b508091505092915050565b6000610bb08383610b67565b905092915050565b6000602082019050919050565b6000610bd082610ae2565b610bda8185610aed565b935083602082028501610bec85610afe565b8060005b85811015610c285784840389528151610c098582610ba4565b9450610c1483610bb8565b925060208a01995050600181019050610bf0565b50829750879550505050505092915050565b60006020820190508181036000830152610c548184610bc5565b905092915050565b7f596f75206861766520616c726561647920766f74656400000000000000000000600082015250565b6000610c926016836107e5565b9150610c9d82610c5c565b602082019050919050565b60006020820190508181036000830152610cc181610c85565b9050919050565b7f496e76616c69642063616e64696461746520696e6465782e0000000000000000600082015250565b6000610cfe6018836107e5565b9150610d0982610cc8565b602082019050919050565b60006020820190508181036000830152610d2d81610cf1565b9050919050565b7f4e487b7100000000000000000000000000000000000000000000000000000000600052603260045260246000fd5b7f4e487b7100000000000000000000000000000000000000000000000000000000600052601160045260246000fd5b6000610d9d8261074d565b91507fffffffffffffffffffffffffffffffffffffffffffffffffffffffffffffffff821415610dd057610dcf610d63565b5b600182019050919050565b7f4e487b7100000000000000000000000000000000000000000000000000000000600052602260045260246000fd5b60006002820490506001821680610e2257607f821691505b60208210811415610e3657610e35610ddb565b5b50919050565b7f796f7520617265206e6f74206f776e65722e2e2e000000000000000000000000600082015250565b6000610e726014836107e5565b9150610e7d82610e3c565b602082019050919050565b60006020820190508181036000830152610ea181610e65565b9050919050565b7f566f74696e6720686173206e6f7420737461727465642e000000000000000000600082015250565b6000610ede6017836107e5565b9150610ee982610ea8565b602082019050919050565b60006020820190508181036000830152610f0d81610ed1565b9050919050565b6000610f1f8261074d565b9150610f2a8361074d565b925082821015610f3d57610f3c610d63565b5b82820390509291505056fea264697066735822122069c3f391551376063af02407dbf02c952397d7a4a077063963552813a2c48b8564736f6c63430008090033",
  "linkReferences": {},
  "deployedLinkReferences": {}
}